{
  "contractName": "Staking",
  "abi": [
    {
      "inputs": [],
      "stateMutability": "nonpayable",
      "type": "constructor"
    },
    {
      "anonymous": false,
      "inputs": [
        {
          "indexed": true,
          "internalType": "address",
          "name": "owner",
          "type": "address"
        },
        {
          "indexed": true,
          "internalType": "address",
          "name": "spender",
          "type": "address"
        },
        {
          "indexed": false,
          "internalType": "uint256",
          "name": "value",
          "type": "uint256"
        }
      ],
      "name": "Approval",
      "type": "event"
    },
    {
      "anonymous": false,
      "inputs": [
        {
          "indexed": true,
          "internalType": "address",
          "name": "owner",
          "type": "address"
        },
        {
          "indexed": false,
          "internalType": "uint256",
          "name": "stakeId",
          "type": "uint256"
        }
      ],
      "name": "StakeAdded",
      "type": "event"
    },
    {
      "anonymous": false,
      "inputs": [
        {
          "indexed": true,
          "internalType": "address",
          "name": "from",
          "type": "address"
        },
        {
          "indexed": true,
          "internalType": "address",
          "name": "to",
          "type": "address"
        },
        {
          "indexed": false,
          "internalType": "uint256",
          "name": "value",
          "type": "uint256"
        }
      ],
      "name": "Transfer",
      "type": "event"
    },
    {
      "inputs": [
        {
          "internalType": "address",
          "name": "owner",
          "type": "address"
        },
        {
          "internalType": "address",
          "name": "spender",
          "type": "address"
        }
      ],
      "name": "allowance",
      "outputs": [
        {
          "internalType": "uint256",
          "name": "",
          "type": "uint256"
        }
      ],
      "stateMutability": "view",
      "type": "function",
      "constant": true
    },
    {
      "inputs": [
        {
          "internalType": "address",
          "name": "spender",
          "type": "address"
        },
        {
          "internalType": "uint256",
          "name": "amount",
          "type": "uint256"
        }
      ],
      "name": "approve",
      "outputs": [
        {
          "internalType": "bool",
          "name": "",
          "type": "bool"
        }
      ],
      "stateMutability": "nonpayable",
      "type": "function"
    },
    {
      "inputs": [
        {
          "internalType": "address",
          "name": "account",
          "type": "address"
        }
      ],
      "name": "balanceOf",
      "outputs": [
        {
          "internalType": "uint256",
          "name": "",
          "type": "uint256"
        }
      ],
      "stateMutability": "view",
      "type": "function",
      "constant": true
    },
    {
      "inputs": [],
      "name": "decimals",
      "outputs": [
        {
          "internalType": "uint8",
          "name": "",
          "type": "uint8"
        }
      ],
      "stateMutability": "view",
      "type": "function",
      "constant": true
    },
    {
      "inputs": [
        {
          "internalType": "address",
          "name": "spender",
          "type": "address"
        },
        {
          "internalType": "uint256",
          "name": "subtractedValue",
          "type": "uint256"
        }
      ],
      "name": "decreaseAllowance",
      "outputs": [
        {
          "internalType": "bool",
          "name": "",
          "type": "bool"
        }
      ],
      "stateMutability": "nonpayable",
      "type": "function"
    },
    {
      "inputs": [
        {
          "internalType": "address",
          "name": "spender",
          "type": "address"
        },
        {
          "internalType": "uint256",
          "name": "addedValue",
          "type": "uint256"
        }
      ],
      "name": "increaseAllowance",
      "outputs": [
        {
          "internalType": "bool",
          "name": "",
          "type": "bool"
        }
      ],
      "stateMutability": "nonpayable",
      "type": "function"
    },
    {
      "inputs": [],
      "name": "name",
      "outputs": [
        {
          "internalType": "string",
          "name": "",
          "type": "string"
        }
      ],
      "stateMutability": "view",
      "type": "function",
      "constant": true
    },
    {
      "inputs": [
        {
          "internalType": "uint256",
          "name": "",
          "type": "uint256"
        }
      ],
      "name": "stakes",
      "outputs": [
        {
          "internalType": "uint256",
          "name": "amount",
          "type": "uint256"
        },
        {
          "internalType": "uint256",
          "name": "stakedAtBlock",
          "type": "uint256"
        },
        {
          "internalType": "uint256",
          "name": "unlockAtBlock",
          "type": "uint256"
        },
        {
          "internalType": "address",
          "name": "owner",
          "type": "address"
        },
        {
          "internalType": "bool",
          "name": "isWithdrawn",
          "type": "bool"
        }
      ],
      "stateMutability": "view",
      "type": "function",
      "constant": true
    },
    {
      "inputs": [],
      "name": "symbol",
      "outputs": [
        {
          "internalType": "string",
          "name": "",
          "type": "string"
        }
      ],
      "stateMutability": "view",
      "type": "function",
      "constant": true
    },
    {
      "inputs": [],
      "name": "totalSupply",
      "outputs": [
        {
          "internalType": "uint256",
          "name": "",
          "type": "uint256"
        }
      ],
      "stateMutability": "view",
      "type": "function",
      "constant": true
    },
    {
      "inputs": [
        {
          "internalType": "address",
          "name": "recipient",
          "type": "address"
        },
        {
          "internalType": "uint256",
          "name": "amount",
          "type": "uint256"
        }
      ],
      "name": "transfer",
      "outputs": [
        {
          "internalType": "bool",
          "name": "",
          "type": "bool"
        }
      ],
      "stateMutability": "nonpayable",
      "type": "function"
    },
    {
      "inputs": [
        {
          "internalType": "address",
          "name": "sender",
          "type": "address"
        },
        {
          "internalType": "address",
          "name": "recipient",
          "type": "address"
        },
        {
          "internalType": "uint256",
          "name": "amount",
          "type": "uint256"
        }
      ],
      "name": "transferFrom",
      "outputs": [
        {
          "internalType": "bool",
          "name": "",
          "type": "bool"
        }
      ],
      "stateMutability": "nonpayable",
      "type": "function"
    },
    {
      "inputs": [
        {
          "internalType": "uint256",
          "name": "_unlockAfterBlocks",
          "type": "uint256"
        }
      ],
      "name": "stakeEth",
      "outputs": [],
      "stateMutability": "payable",
      "type": "function",
      "payable": true
    },
    {
      "inputs": [
        {
          "internalType": "uint256[]",
          "name": "_withdrawIds",
          "type": "uint256[]"
        }
      ],
      "name": "withdrawEth",
      "outputs": [],
      "stateMutability": "nonpayable",
      "type": "function"
    }
  ],
  "bytecode": "0x60806040527fffffffffffffffffffffffffffffffffffffffffffffffffffffffffffffffff6005553480156200003557600080fd5b506040518060400160405280600c81526020017f52657761726473546f6b656e00000000000000000000000000000000000000008152506040518060400160405280600481526020017f52575244000000000000000000000000000000000000000000000000000000008152508160039080519060200190620000ba929190620000dc565b508060049080519060200190620000d3929190620000dc565b505050620001f1565b828054620000ea906200018c565b90600052602060002090601f0160209004810192826200010e57600085556200015a565b82601f106200012957805160ff19168380011785556200015a565b828001600101855582156200015a579182015b82811115620001595782518255916020019190600101906200013c565b5b5090506200016991906200016d565b5090565b5b80821115620001885760008160009055506001016200016e565b5090565b60006002820490506001821680620001a557607f821691505b60208210811415620001bc57620001bb620001c2565b5b50919050565b7f4e487b7100000000000000000000000000000000000000000000000000000000600052602260045260246000fd5b6123d880620002016000396000f3fe6080604052600436106100dd5760003560e01c806370a082311161007f578063a457c2d711610059578063a457c2d7146102c7578063a9059cbb14610304578063d5a44f8614610341578063dd62ed3e14610382576100dd565b806370a082311461024357806395d89b411461028057806396db582a146102ab576100dd565b806318160ddd116100bb57806318160ddd1461017357806323b872dd1461019e578063313ce567146101db5780633950935114610206576100dd565b806301690d58146100e257806306fdde031461010b578063095ea7b314610136575b600080fd5b3480156100ee57600080fd5b506101096004803603810190610104919061178e565b6103bf565b005b34801561011757600080fd5b506101206108cb565b60405161012d9190611a4f565b60405180910390f35b34801561014257600080fd5b5061015d60048036038101906101589190611752565b61095d565b60405161016a9190611a34565b60405180910390f35b34801561017f57600080fd5b5061018861097b565b6040516101959190611c11565b60405180910390f35b3480156101aa57600080fd5b506101c560048036038101906101c09190611703565b610985565b6040516101d29190611a34565b60405180910390f35b3480156101e757600080fd5b506101f0610a86565b6040516101fd9190611c7f565b60405180910390f35b34801561021257600080fd5b5061022d60048036038101906102289190611752565b610a8f565b60405161023a9190611a34565b60405180910390f35b34801561024f57600080fd5b5061026a6004803603810190610265919061169e565b610b3b565b6040516102779190611c11565b60405180910390f35b34801561028c57600080fd5b50610295610b83565b6040516102a29190611a4f565b60405180910390f35b6102c560048036038101906102c091906117cf565b610c15565b005b3480156102d357600080fd5b506102ee60048036038101906102e99190611752565b610e00565b6040516102fb9190611a34565b60405180910390f35b34801561031057600080fd5b5061032b60048036038101906103269190611752565b610ef4565b6040516103389190611a34565b60405180910390f35b34801561034d57600080fd5b50610368600480360381019061036391906117cf565b610f12565b604051610379959493929190611c2c565b60405180910390f35b34801561038e57600080fd5b506103a960048036038101906103a491906116c7565b610f85565b6040516103b69190611c11565b60405180910390f35b6000815111610403576040517f08c379a00000000000000000000000000000000000000000000000000000000081526004016103fa90611bb1565b60405180910390fd5b60008060005b835181101561080057600084828151811061044d577f4e487b7100000000000000000000000000000000000000000000000000000000600052603260045260246000fd5b60200260200101519050600680549050811061049e576040517f08c379a000000000000000000000000000000000000000000000000000000000815260040161049590611b71565b60405180910390fd5b3373ffffffffffffffffffffffffffffffffffffffff16600682815481106104ef577f4e487b7100000000000000000000000000000000000000000000000000000000600052603260045260246000fd5b906000526020600020906004020160030160009054906101000a900473ffffffffffffffffffffffffffffffffffffffff1673ffffffffffffffffffffffffffffffffffffffff1614801561059a575060068181548110610579577f4e487b7100000000000000000000000000000000000000000000000000000000600052603260045260246000fd5b906000526020600020906004020160030160149054906101000a900460ff16155b80156105f1575043600682815481106105dc577f4e487b7100000000000000000000000000000000000000000000000000000000600052603260045260246000fd5b90600052602060002090600402016002015411155b156107b15760068181548110610630577f4e487b7100000000000000000000000000000000000000000000000000000000600052603260045260246000fd5b9060005260206000209060040201600001548461064d9190611d07565b935060016006828154811061068b577f4e487b7100000000000000000000000000000000000000000000000000000000600052603260045260246000fd5b906000526020600020906004020160030160146101000a81548160ff02191690831515021790555061079f600682815481106106f0577f4e487b7100000000000000000000000000000000000000000000000000000000600052603260045260246000fd5b9060005260206000209060040201600101546006838154811061073c577f4e487b7100000000000000000000000000000000000000000000000000000000600052603260045260246000fd5b90600052602060002090600402016002015460068481548110610788577f4e487b7100000000000000000000000000000000000000000000000000000000600052603260045260246000fd5b90600052602060002090600402016000015461100c565b836107aa9190611d07565b92506107ec565b6040517f08c379a00000000000000000000000000000000000000000000000000000000081526004016107e390611af1565b60405180910390fd5b5080806107f890611ed6565b915050610409565b5060008211610838577f4e487b7100000000000000000000000000000000000000000000000000000000600052600160045260246000fd5b4782111561086f577f4e487b7100000000000000000000000000000000000000000000000000000000600052600160045260246000fd5b6108793382611033565b60003390508073ffffffffffffffffffffffffffffffffffffffff166108fc849081150290604051600060405180830381858888f193505050501580156108c4573d6000803e3d6000fd5b5050505050565b6060600380546108da90611e73565b80601f016020809104026020016040519081016040528092919081815260200182805461090690611e73565b80156109535780601f1061092857610100808354040283529160200191610953565b820191906000526020600020905b81548152906001019060200180831161093657829003601f168201915b5050505050905090565b600061097161096a611187565b848461118f565b6001905092915050565b6000600254905090565b600061099284848461135a565b6000600160008673ffffffffffffffffffffffffffffffffffffffff1673ffffffffffffffffffffffffffffffffffffffff16815260200190815260200160002060006109dd611187565b73ffffffffffffffffffffffffffffffffffffffff1673ffffffffffffffffffffffffffffffffffffffff16815260200190815260200160002054905082811015610a5d576040517f08c379a0000000000000000000000000000000000000000000000000000000008152600401610a5490611b31565b60405180910390fd5b610a7a85610a69611187565b8584610a759190611db7565b61118f565b60019150509392505050565b60006012905090565b6000610b31610a9c611187565b848460016000610aaa611187565b73ffffffffffffffffffffffffffffffffffffffff1673ffffffffffffffffffffffffffffffffffffffff16815260200190815260200160002060008873ffffffffffffffffffffffffffffffffffffffff1673ffffffffffffffffffffffffffffffffffffffff16815260200190815260200160002054610b2c9190611d07565b61118f565b6001905092915050565b60008060008373ffffffffffffffffffffffffffffffffffffffff1673ffffffffffffffffffffffffffffffffffffffff168152602001908152602001600020549050919050565b606060048054610b9290611e73565b80601f0160208091040260200160405190810160405280929190818152602001828054610bbe90611e73565b8015610c0b5780601f10610be057610100808354040283529160200191610c0b565b820191906000526020600020905b815481529060010190602001808311610bee57829003601f168201915b5050505050905090565b60003411610c58576040517f08c379a0000000000000000000000000000000000000000000000000000000008152600401610c4f90611b11565b60405180910390fd5b60008111610c9b576040517f08c379a0000000000000000000000000000000000000000000000000000000008152600401610c9290611a91565b60405180910390fd5b60008143610ca99190611d07565b905060066040518060a001604052803481526020014381526020018381526020013373ffffffffffffffffffffffffffffffffffffffff16815260200160001515815250908060018154018082558091505060019003906000526020600020906004020160009091909190915060008201518160000155602082015181600101556040820151816002015560608201518160030160006101000a81548173ffffffffffffffffffffffffffffffffffffffff021916908373ffffffffffffffffffffffffffffffffffffffff16021790555060808201518160030160146101000a81548160ff02191690831515021790555050503373ffffffffffffffffffffffffffffffffffffffff167f7c717985ac273e663b7f3050f5b15a4388ff6ed952338954f650e2093e13937f6001600680549050610de79190611db7565b604051610df49190611c11565b60405180910390a25050565b60008060016000610e0f611187565b73ffffffffffffffffffffffffffffffffffffffff1673ffffffffffffffffffffffffffffffffffffffff16815260200190815260200160002060008573ffffffffffffffffffffffffffffffffffffffff1673ffffffffffffffffffffffffffffffffffffffff16815260200190815260200160002054905082811015610ecc576040517f08c379a0000000000000000000000000000000000000000000000000000000008152600401610ec390611bd1565b60405180910390fd5b610ee9610ed7611187565b858584610ee49190611db7565b61118f565b600191505092915050565b6000610f08610f01611187565b848461135a565b6001905092915050565b60068181548110610f2257600080fd5b90600052602060002090600402016000915090508060000154908060010154908060020154908060030160009054906101000a900473ffffffffffffffffffffffffffffffffffffffff16908060030160149054906101000a900460ff16905085565b6000600160008473ffffffffffffffffffffffffffffffffffffffff1673ffffffffffffffffffffffffffffffffffffffff16815260200190815260200160002060008373ffffffffffffffffffffffffffffffffffffffff1673ffffffffffffffffffffffffffffffffffffffff16815260200190815260200160002054905092915050565b600080848461101b9190611db7565b905082816110299190611d5d565b9150509392505050565b600073ffffffffffffffffffffffffffffffffffffffff168273ffffffffffffffffffffffffffffffffffffffff1614156110a3576040517f08c379a000000000000000000000000000000000000000000000000000000000815260040161109a90611bf1565b60405180910390fd5b6110af600083836115d9565b80600260008282546110c19190611d07565b92505081905550806000808473ffffffffffffffffffffffffffffffffffffffff1673ffffffffffffffffffffffffffffffffffffffff16815260200190815260200160002060008282546111169190611d07565b925050819055508173ffffffffffffffffffffffffffffffffffffffff16600073ffffffffffffffffffffffffffffffffffffffff167fddf252ad1be2c89b69c2b068fc378daa952ba7f163c4a11628f55a4df523b3ef8360405161117b9190611c11565b60405180910390a35050565b600033905090565b600073ffffffffffffffffffffffffffffffffffffffff168373ffffffffffffffffffffffffffffffffffffffff1614156111ff576040517f08c379a00000000000000000000000000000000000000000000000000000000081526004016111f690611b91565b60405180910390fd5b600073ffffffffffffffffffffffffffffffffffffffff168273ffffffffffffffffffffffffffffffffffffffff16141561126f576040517f08c379a000000000000000000000000000000000000000000000000000000000815260040161126690611ab1565b60405180910390fd5b80600160008573ffffffffffffffffffffffffffffffffffffffff1673ffffffffffffffffffffffffffffffffffffffff16815260200190815260200160002060008473ffffffffffffffffffffffffffffffffffffffff1673ffffffffffffffffffffffffffffffffffffffff168152602001908152602001600020819055508173ffffffffffffffffffffffffffffffffffffffff168373ffffffffffffffffffffffffffffffffffffffff167f8c5be1e5ebec7d5bd14f71427d1e84f3dd0314c0f7b2291e5b200ac8c7c3b9258360405161134d9190611c11565b60405180910390a3505050565b600073ffffffffffffffffffffffffffffffffffffffff168373ffffffffffffffffffffffffffffffffffffffff1614156113ca576040517f08c379a00000000000000000000000000000000000000000000000000000000081526004016113c190611b51565b60405180910390fd5b600073ffffffffffffffffffffffffffffffffffffffff168273ffffffffffffffffffffffffffffffffffffffff16141561143a576040517f08c379a000000000000000000000000000000000000000000000000000000000815260040161143190611a71565b60405180910390fd5b6114458383836115d9565b60008060008573ffffffffffffffffffffffffffffffffffffffff1673ffffffffffffffffffffffffffffffffffffffff168152602001908152602001600020549050818110156114cb576040517f08c379a00000000000000000000000000000000000000000000000000000000081526004016114c290611ad1565b60405180910390fd5b81816114d79190611db7565b6000808673ffffffffffffffffffffffffffffffffffffffff1673ffffffffffffffffffffffffffffffffffffffff16815260200190815260200160002081905550816000808573ffffffffffffffffffffffffffffffffffffffff1673ffffffffffffffffffffffffffffffffffffffff16815260200190815260200160002060008282546115679190611d07565b925050819055508273ffffffffffffffffffffffffffffffffffffffff168473ffffffffffffffffffffffffffffffffffffffff167fddf252ad1be2c89b69c2b068fc378daa952ba7f163c4a11628f55a4df523b3ef846040516115cb9190611c11565b60405180910390a350505050565b505050565b60006115f16115ec84611cbf565b611c9a565b9050808382526020820190508285602086028201111561161057600080fd5b60005b8581101561164057816116268882611689565b845260208401935060208301925050600181019050611613565b5050509392505050565b60008135905061165981612374565b92915050565b600082601f83011261167057600080fd5b81356116808482602086016115de565b91505092915050565b6000813590506116988161238b565b92915050565b6000602082840312156116b057600080fd5b60006116be8482850161164a565b91505092915050565b600080604083850312156116da57600080fd5b60006116e88582860161164a565b92505060206116f98582860161164a565b9150509250929050565b60008060006060848603121561171857600080fd5b60006117268682870161164a565b93505060206117378682870161164a565b925050604061174886828701611689565b9150509250925092565b6000806040838503121561176557600080fd5b60006117738582860161164a565b925050602061178485828601611689565b9150509250929050565b6000602082840312156117a057600080fd5b600082013567ffffffffffffffff8111156117ba57600080fd5b6117c68482850161165f565b91505092915050565b6000602082840312156117e157600080fd5b60006117ef84828501611689565b91505092915050565b61180181611deb565b82525050565b61181081611dfd565b82525050565b600061182182611ceb565b61182b8185611cf6565b935061183b818560208601611e40565b61184481611fac565b840191505092915050565b600061185c602383611cf6565b915061186782611fbd565b604082019050919050565b600061187f603183611cf6565b915061188a8261200c565b604082019050919050565b60006118a2602283611cf6565b91506118ad8261205b565b604082019050919050565b60006118c5602683611cf6565b91506118d0826120aa565b604082019050919050565b60006118e8602183611cf6565b91506118f3826120f9565b604082019050919050565b600061190b602283611cf6565b915061191682612148565b604082019050919050565b600061192e602883611cf6565b915061193982612197565b604082019050919050565b6000611951602583611cf6565b915061195c826121e6565b604082019050919050565b6000611974601d83611cf6565b915061197f82612235565b602082019050919050565b6000611997602483611cf6565b91506119a28261225e565b604082019050919050565b60006119ba602983611cf6565b91506119c5826122ad565b604082019050919050565b60006119dd602583611cf6565b91506119e8826122fc565b604082019050919050565b6000611a00601f83611cf6565b9150611a0b8261234b565b602082019050919050565b611a1f81611e29565b82525050565b611a2e81611e33565b82525050565b6000602082019050611a496000830184611807565b92915050565b60006020820190508181036000830152611a698184611816565b905092915050565b60006020820190508181036000830152611a8a8161184f565b9050919050565b60006020820190508181036000830152611aaa81611872565b9050919050565b60006020820190508181036000830152611aca81611895565b9050919050565b60006020820190508181036000830152611aea816118b8565b9050919050565b60006020820190508181036000830152611b0a816118db565b9050919050565b60006020820190508181036000830152611b2a816118fe565b9050919050565b60006020820190508181036000830152611b4a81611921565b9050919050565b60006020820190508181036000830152611b6a81611944565b9050919050565b60006020820190508181036000830152611b8a81611967565b9050919050565b60006020820190508181036000830152611baa8161198a565b9050919050565b60006020820190508181036000830152611bca816119ad565b9050919050565b60006020820190508181036000830152611bea816119d0565b9050919050565b60006020820190508181036000830152611c0a816119f3565b9050919050565b6000602082019050611c266000830184611a16565b92915050565b600060a082019050611c416000830188611a16565b611c4e6020830187611a16565b611c5b6040830186611a16565b611c6860608301856117f8565b611c756080830184611807565b9695505050505050565b6000602082019050611c946000830184611a25565b92915050565b6000611ca4611cb5565b9050611cb08282611ea5565b919050565b6000604051905090565b600067ffffffffffffffff821115611cda57611cd9611f7d565b5b602082029050602081019050919050565b600081519050919050565b600082825260208201905092915050565b6000611d1282611e29565b9150611d1d83611e29565b9250827fffffffffffffffffffffffffffffffffffffffffffffffffffffffffffffffff03821115611d5257611d51611f1f565b5b828201905092915050565b6000611d6882611e29565b9150611d7383611e29565b9250817fffffffffffffffffffffffffffffffffffffffffffffffffffffffffffffffff0483118215151615611dac57611dab611f1f565b5b828202905092915050565b6000611dc282611e29565b9150611dcd83611e29565b925082821015611de057611ddf611f1f565b5b828203905092915050565b6000611df682611e09565b9050919050565b60008115159050919050565b600073ffffffffffffffffffffffffffffffffffffffff82169050919050565b6000819050919050565b600060ff82169050919050565b60005b83811015611e5e578082015181840152602081019050611e43565b83811115611e6d576000848401525b50505050565b60006002820490506001821680611e8b57607f821691505b60208210811415611e9f57611e9e611f4e565b5b50919050565b611eae82611fac565b810181811067ffffffffffffffff82111715611ecd57611ecc611f7d565b5b80604052505050565b6000611ee182611e29565b91507fffffffffffffffffffffffffffffffffffffffffffffffffffffffffffffffff821415611f1457611f13611f1f565b5b600182019050919050565b7f4e487b7100000000000000000000000000000000000000000000000000000000600052601160045260246000fd5b7f4e487b7100000000000000000000000000000000000000000000000000000000600052602260045260246000fd5b7f4e487b7100000000000000000000000000000000000000000000000000000000600052604160045260246000fd5b6000601f19601f8301169050919050565b7f45524332303a207472616e7366657220746f20746865207a65726f206164647260008201527f6573730000000000000000000000000000000000000000000000000000000000602082015250565b7f596f75206d757374207374616b6520666f72206174206c65617374207468652060008201527f706572696f64206f66203120626c6f636b000000000000000000000000000000602082015250565b7f45524332303a20617070726f766520746f20746865207a65726f20616464726560008201527f7373000000000000000000000000000000000000000000000000000000000000602082015250565b7f45524332303a207472616e7366657220616d6f756e742065786365656473206260008201527f616c616e63650000000000000000000000000000000000000000000000000000602082015250565b7f596f752063616e6e6f74207769746864726177207468657365207374616b657360008201527f2100000000000000000000000000000000000000000000000000000000000000602082015250565b7f5374616b6520616d6f756e742068617320746f206265206d6f7265207468616e60008201527f2030000000000000000000000000000000000000000000000000000000000000602082015250565b7f45524332303a207472616e7366657220616d6f756e742065786365656473206160008201527f6c6c6f77616e6365000000000000000000000000000000000000000000000000602082015250565b7f45524332303a207472616e736665722066726f6d20746865207a65726f20616460008201527f6472657373000000000000000000000000000000000000000000000000000000602082015250565b7f5374616b65207769746820696420646f6573206e6f7420657869737421000000600082015250565b7f45524332303a20617070726f76652066726f6d20746865207a65726f2061646460008201527f7265737300000000000000000000000000000000000000000000000000000000602082015250565b7f596f75206d7573742070726f76696465206174206c65617374206f6e6520776960008201527f7468647261772069640000000000000000000000000000000000000000000000602082015250565b7f45524332303a2064656372656173656420616c6c6f77616e63652062656c6f7760008201527f207a65726f000000000000000000000000000000000000000000000000000000602082015250565b7f45524332303a206d696e7420746f20746865207a65726f206164647265737300600082015250565b61237d81611deb565b811461238857600080fd5b50565b61239481611e29565b811461239f57600080fd5b5056fea2646970667358221220b04cf13cd10f7619a300e0b8b682d0b54e63d80f040a4908da2c7134e74204a364736f6c63430008040033",
  "immutableReferences": {},
  "source": "// SPDX-License-Identifier: MIT\npragma solidity ^0.8.0;\n\nimport \"../node_modules/@openzeppelin/contracts/token/ERC20/ERC20.sol\";\n\ninterface StakingInterface {\n    function stakeEth(uint _unlockAfterBlocks) external payable;\n    function withdrawEth(uint[] memory withdrawIds) external;\n}\n\ncontract Staking is StakingInterface, ERC20 {\n    event StakeAdded(address indexed owner, uint stakeId);\n\n    uint MAX_INT = 2**256 - 1;\n\n    struct Stake {\n        uint amount;\n        uint stakedAtBlock;\n        uint unlockAtBlock;\n        address owner;\n        bool isWithdrawn;\n    }\n\n    Stake[] public stakes;\n\n    constructor () ERC20(\"RewardsToken\", \"RWRD\") {}\n\n    function stakeEth(uint _unlockAfterBlocks) external payable override {\n        require(msg.value > 0, \"Stake amount has to be more than 0\");\n        require(_unlockAfterBlocks > 0, \"You must stake for at least the period of 1 block\");\n\n        uint unlockAtBlock = block.number + _unlockAfterBlocks;\n\n        stakes.push(Stake(msg.value, block.number, unlockAtBlock, msg.sender, false));\n\n        emit StakeAdded(msg.sender, stakes.length - 1);\n    }\n\n    function withdrawEth(uint[] memory _withdrawIds) external override {\n        require(_withdrawIds.length > 0, \"You must provide at least one withdraw id\");\n\n        uint ownerWithdrawAmount = 0;\n        uint rewardTokenCount = 0;\n\n        for (uint i = 0; i < _withdrawIds.length; i++) {\n            uint id = _withdrawIds[i];\n            require(id < stakes.length, \"Stake with id does not exist!\");\n            // check if owner, stake has not been withdrawn yet and if stake time has passed\n            if (stakes[id].owner == msg.sender && !stakes[id].isWithdrawn && stakes[id].unlockAtBlock <= block.number) {\n                ownerWithdrawAmount += stakes[id].amount;\n                stakes[id].isWithdrawn = true;\n                rewardTokenCount += _getRewardTokenCount(stakes[id].stakedAtBlock, stakes[id].unlockAtBlock, stakes[id].amount);\n            } else {\n                revert(\"You cannot withdraw these stakes!\");\n            }\n        }\n\n        assert(ownerWithdrawAmount > 0);\n        assert(ownerWithdrawAmount <= address(this).balance);\n\n        _mint(msg.sender, rewardTokenCount);\n\n        address payable stakeOwner = payable(msg.sender);\n        stakeOwner.transfer(ownerWithdrawAmount);\n    }\n\n    function _getRewardTokenCount(uint _stakedAtBlock, uint _unlockAtBlock, uint _amountStaked) private pure returns(uint) {\n        uint timeStaked = _unlockAtBlock - _stakedAtBlock;\n        return timeStaked * _amountStaked;\n    }\n}",
  "sourcePath": "/Users/gm/Desktop/faculty-group-test/solidity/contracts/Staking.sol",
  "compiler": {
    "name": "solc",
    "version": "0.8.4+commit.c7e474f2.Emscripten.clang"
  },
  "schemaVersion": "3.4.4",
  "updatedAt": "2022-02-16T08:03:24.686Z",
  "networkType": "ethereum",
  "devdoc": {
    "kind": "dev",
    "methods": {
      "allowance(address,address)": {
        "details": "See {IERC20-allowance}."
      },
      "approve(address,uint256)": {
        "details": "See {IERC20-approve}. Requirements: - `spender` cannot be the zero address."
      },
      "balanceOf(address)": {
        "details": "See {IERC20-balanceOf}."
      },
      "decimals()": {
        "details": "Returns the number of decimals used to get its user representation. For example, if `decimals` equals `2`, a balance of `505` tokens should be displayed to a user as `5,05` (`505 / 10 ** 2`). Tokens usually opt for a value of 18, imitating the relationship between Ether and Wei. This is the value {ERC20} uses, unless this function is overridden; NOTE: This information is only used for _display_ purposes: it in no way affects any of the arithmetic of the contract, including {IERC20-balanceOf} and {IERC20-transfer}."
      },
      "decreaseAllowance(address,uint256)": {
        "details": "Atomically decreases the allowance granted to `spender` by the caller. This is an alternative to {approve} that can be used as a mitigation for problems described in {IERC20-approve}. Emits an {Approval} event indicating the updated allowance. Requirements: - `spender` cannot be the zero address. - `spender` must have allowance for the caller of at least `subtractedValue`."
      },
      "increaseAllowance(address,uint256)": {
        "details": "Atomically increases the allowance granted to `spender` by the caller. This is an alternative to {approve} that can be used as a mitigation for problems described in {IERC20-approve}. Emits an {Approval} event indicating the updated allowance. Requirements: - `spender` cannot be the zero address."
      },
      "name()": {
        "details": "Returns the name of the token."
      },
      "symbol()": {
        "details": "Returns the symbol of the token, usually a shorter version of the name."
      },
      "totalSupply()": {
        "details": "See {IERC20-totalSupply}."
      },
      "transfer(address,uint256)": {
        "details": "See {IERC20-transfer}. Requirements: - `recipient` cannot be the zero address. - the caller must have a balance of at least `amount`."
      },
      "transferFrom(address,address,uint256)": {
        "details": "See {IERC20-transferFrom}. Emits an {Approval} event indicating the updated allowance. This is not required by the EIP. See the note at the beginning of {ERC20}. Requirements: - `sender` and `recipient` cannot be the zero address. - `sender` must have a balance of at least `amount`. - the caller must have allowance for ``sender``'s tokens of at least `amount`."
      }
    },
    "version": 1
  },
  "userdoc": {
    "kind": "user",
    "methods": {},
    "version": 1
  }
}